{
  "_format": "hh-sol-artifact-1",
  "contractName": "DeWill",
  "sourceName": "contracts/DeWill.sol",
  "abi": [
    {
      "inputs": [],
      "stateMutability": "nonpayable",
      "type": "constructor"
    },
    {
      "inputs": [
        {
          "internalType": "address",
          "name": "owner",
          "type": "address"
        }
      ],
      "name": "OwnableInvalidOwner",
      "type": "error"
    },
    {
      "inputs": [
        {
          "internalType": "address",
          "name": "account",
          "type": "address"
        }
      ],
      "name": "OwnableUnauthorizedAccount",
      "type": "error"
    },
    {
      "anonymous": false,
      "inputs": [
        {
          "indexed": true,
          "internalType": "address",
          "name": "previousOwner",
          "type": "address"
        },
        {
          "indexed": true,
          "internalType": "address",
          "name": "newOwner",
          "type": "address"
        }
      ],
      "name": "OwnershipTransferred",
      "type": "event"
    },
    {
      "inputs": [
        {
          "components": [
            {
              "internalType": "address",
              "name": "addr",
              "type": "address"
            },
            {
              "internalType": "string",
              "name": "firstName",
              "type": "string"
            },
            {
              "internalType": "string",
              "name": "lastName",
              "type": "string"
            },
            {
              "internalType": "string",
              "name": "primaryEmail",
              "type": "string"
            },
            {
              "internalType": "string",
              "name": "secondaryEmail",
              "type": "string"
            },
            {
              "internalType": "enum DeWill.Currency",
              "name": "currency",
              "type": "uint8"
            },
            {
              "internalType": "enum DeWill.Country",
              "name": "country",
              "type": "uint8"
            },
            {
              "internalType": "uint256",
              "name": "age",
              "type": "uint256"
            },
            {
              "internalType": "enum DeWill.Gender",
              "name": "gender",
              "type": "uint8"
            },
            {
              "internalType": "uint256",
              "name": "percentage",
              "type": "uint256"
            }
          ],
          "internalType": "struct DeWill.Recipient[]",
          "name": "_recipients",
          "type": "tuple[]"
        }
      ],
      "name": "addRecipients",
      "outputs": [],
      "stateMutability": "nonpayable",
      "type": "function"
    },
    {
      "inputs": [
        {
          "internalType": "enum DeWill.Currency",
          "name": "_currency",
          "type": "uint8"
        }
      ],
      "name": "getBalance",
      "outputs": [
        {
          "internalType": "uint256",
          "name": "",
          "type": "uint256"
        }
      ],
      "stateMutability": "view",
      "type": "function"
    },
    {
      "inputs": [],
      "name": "getRecipients",
      "outputs": [
        {
          "components": [
            {
              "internalType": "address",
              "name": "addr",
              "type": "address"
            },
            {
              "internalType": "string",
              "name": "firstName",
              "type": "string"
            },
            {
              "internalType": "string",
              "name": "lastName",
              "type": "string"
            },
            {
              "internalType": "string",
              "name": "primaryEmail",
              "type": "string"
            },
            {
              "internalType": "string",
              "name": "secondaryEmail",
              "type": "string"
            },
            {
              "internalType": "enum DeWill.Currency",
              "name": "currency",
              "type": "uint8"
            },
            {
              "internalType": "enum DeWill.Country",
              "name": "country",
              "type": "uint8"
            },
            {
              "internalType": "uint256",
              "name": "age",
              "type": "uint256"
            },
            {
              "internalType": "enum DeWill.Gender",
              "name": "gender",
              "type": "uint8"
            },
            {
              "internalType": "uint256",
              "name": "percentage",
              "type": "uint256"
            }
          ],
          "internalType": "struct DeWill.Recipient[]",
          "name": "",
          "type": "tuple[]"
        }
      ],
      "stateMutability": "view",
      "type": "function"
    },
    {
      "inputs": [],
      "name": "getStaking",
      "outputs": [
        {
          "internalType": "bool",
          "name": "",
          "type": "bool"
        }
      ],
      "stateMutability": "view",
      "type": "function"
    },
    {
      "inputs": [],
      "name": "optOut",
      "outputs": [],
      "stateMutability": "nonpayable",
      "type": "function"
    },
    {
      "inputs": [],
      "name": "owner",
      "outputs": [
        {
          "internalType": "address",
          "name": "",
          "type": "address"
        }
      ],
      "stateMutability": "view",
      "type": "function"
    },
    {
      "inputs": [],
      "name": "removeRecipients",
      "outputs": [],
      "stateMutability": "nonpayable",
      "type": "function"
    },
    {
      "inputs": [],
      "name": "renounceOwnership",
      "outputs": [],
      "stateMutability": "nonpayable",
      "type": "function"
    },
    {
      "inputs": [
        {
          "internalType": "enum DeWill.Country",
          "name": "_country",
          "type": "uint8"
        },
        {
          "internalType": "string",
          "name": "_currency",
          "type": "string"
        }
      ],
      "name": "setCountryCurrency",
      "outputs": [],
      "stateMutability": "nonpayable",
      "type": "function"
    },
    {
      "inputs": [
        {
          "internalType": "bool",
          "name": "_status",
          "type": "bool"
        }
      ],
      "name": "setStaking",
      "outputs": [],
      "stateMutability": "nonpayable",
      "type": "function"
    },
    {
      "inputs": [
        {
          "internalType": "address",
          "name": "newOwner",
          "type": "address"
        }
      ],
      "name": "transferOwnership",
      "outputs": [],
      "stateMutability": "nonpayable",
      "type": "function"
    },
    {
      "inputs": [
        {
          "internalType": "enum DeWill.Currency",
          "name": "_currency",
          "type": "uint8"
        },
        {
          "internalType": "uint256",
          "name": "_balance",
          "type": "uint256"
        }
      ],
      "name": "updateBalance",
      "outputs": [],
      "stateMutability": "nonpayable",
      "type": "function"
    }
  ],
  "bytecode": "0x608060405234801561001057600080fd5b5033600073ffffffffffffffffffffffffffffffffffffffff168173ffffffffffffffffffffffffffffffffffffffff16036100845760006040517f1e4fbdf700000000000000000000000000000000000000000000000000000000815260040161007b91906105f0565b60405180910390fd5b610093816104eb60201b60201c565b506040518060400160405280600381526020017f494e520000000000000000000000000000000000000000000000000000000000815250600160008060098111156100e1576100e061060b565b5b60098111156100f3576100f261060b565b5b8152602001908152602001600020908161010d919061088a565b506040518060400160405280600381526020017f5553440000000000000000000000000000000000000000000000000000000000815250600160006001600981111561015c5761015b61060b565b5b600981111561016e5761016d61060b565b5b81526020019081526020016000209081610188919061088a565b506040518060400160405280600381526020017f474250000000000000000000000000000000000000000000000000000000000081525060016000600260098111156101d7576101d661060b565b5b60098111156101e9576101e861060b565b5b81526020019081526020016000209081610203919061088a565b506040518060400160405280600381526020017f4a5059000000000000000000000000000000000000000000000000000000000081525060016000600360098111156102525761025161060b565b5b60098111156102645761026361060b565b5b8152602001908152602001600020908161027e919061088a565b506040518060400160405280600381526020017f434144000000000000000000000000000000000000000000000000000000000081525060016000600460098111156102cd576102cc61060b565b5b60098111156102df576102de61060b565b5b815260200190815260200160002090816102f9919061088a565b506040518060400160405280600381526020017f415544000000000000000000000000000000000000000000000000000000000081525060016000600560098111156103485761034761060b565b5b600981111561035a5761035961060b565b5b81526020019081526020016000209081610374919061088a565b506040518060400160405280600381526020017f434e59000000000000000000000000000000000000000000000000000000000081525060016000600660098111156103c3576103c261060b565b5b60098111156103d5576103d461060b565b5b815260200190815260200160002090816103ef919061088a565b506040518060400160405280600381526020017f5255420000000000000000000000000000000000000000000000000000000000815250600160006007600981111561043e5761043d61060b565b5b60098111156104505761044f61060b565b5b8152602001908152602001600020908161046a919061088a565b506040518060400160405280600381526020017f434846000000000000000000000000000000000000000000000000000000000081525060016000600860098111156104b9576104b861060b565b5b60098111156104cb576104ca61060b565b5b815260200190815260200160002090816104e5919061088a565b5061095c565b60008060009054906101000a900473ffffffffffffffffffffffffffffffffffffffff169050816000806101000a81548173ffffffffffffffffffffffffffffffffffffffff021916908373ffffffffffffffffffffffffffffffffffffffff1602179055508173ffffffffffffffffffffffffffffffffffffffff168173ffffffffffffffffffffffffffffffffffffffff167f8be0079c531659141344cd1fd0a4f28419497f9722a3daafe3b4186f6b6457e060405160405180910390a35050565b600073ffffffffffffffffffffffffffffffffffffffff82169050919050565b60006105da826105af565b9050919050565b6105ea816105cf565b82525050565b600060208201905061060560008301846105e1565b92915050565b7f4e487b7100000000000000000000000000000000000000000000000000000000600052602160045260246000fd5b600081519050919050565b7f4e487b7100000000000000000000000000000000000000000000000000000000600052604160045260246000fd5b7f4e487b7100000000000000000000000000000000000000000000000000000000600052602260045260246000fd5b600060028204905060018216806106bb57607f821691505b6020821081036106ce576106cd610674565b5b50919050565b60008190508160005260206000209050919050565b60006020601f8301049050919050565b600082821b905092915050565b6000600883026107367fffffffffffffffffffffffffffffffffffffffffffffffffffffffffffffffff826106f9565b61074086836106f9565b95508019841693508086168417925050509392505050565b6000819050919050565b6000819050919050565b600061078761078261077d84610758565b610762565b610758565b9050919050565b6000819050919050565b6107a18361076c565b6107b56107ad8261078e565b848454610706565b825550505050565b600090565b6107ca6107bd565b6107d5818484610798565b505050565b5b818110156107f9576107ee6000826107c2565b6001810190506107db565b5050565b601f82111561083e5761080f816106d4565b610818846106e9565b81016020851015610827578190505b61083b610833856106e9565b8301826107da565b50505b505050565b600082821c905092915050565b600061086160001984600802610843565b1980831691505092915050565b600061087a8383610850565b9150826002028217905092915050565b6108938261063a565b67ffffffffffffffff8111156108ac576108ab610645565b5b6108b682546106a3565b6108c18282856107fd565b600060209050601f8311600181146108f457600084156108e2578287015190505b6108ec858261086e565b865550610954565b601f198416610902866106d4565b60005b8281101561092a57848901518255600182019150602085019450602081019050610905565b868310156109475784890151610943601f891682610850565b8355505b6001600288020188555050505b505050505050565b611dde8061096b6000396000f3fe608060405234801561001057600080fd5b50600436106100b45760003560e01c8063910730a811610071578063910730a814610141578063bbab08471461015d578063d4eec5a614610179578063d78d610b14610183578063e3a12480146101a1578063f2fde38b146101d1576100b4565b80631f213b8f146100b95780634646d785146100d5578063715018a6146100f15780637b1391a6146100fb5780638902191d146101195780638da5cb5b14610123575b600080fd5b6100d360048036038101906100ce9190611041565b6101ed565b005b6100ef60048036038101906100ea91906111ec565b61026a565b005b6100f96102bb565b005b6101036102cf565b6040516101109190611263565b60405180910390f35b610121610323565b005b61012b6103bf565b60405161013891906112bf565b60405180910390f35b61015b60048036038101906101569190611306565b6103e8565b005b610177600480360381019061017291906115da565b610442565b005b610181610794565b005b61018b610830565b6040516101989190611978565b60405180910390f35b6101bb60048036038101906101b6919061199a565b610c30565b6040516101c891906119d6565b60405180910390f35b6101eb60048036038101906101e691906119f1565b610cae565b005b80600560003373ffffffffffffffffffffffffffffffffffffffff1673ffffffffffffffffffffffffffffffffffffffff1681526020019081526020016000206000846003811115610242576102416116dd565b5b6003811115610254576102536116dd565b5b8152602001908152602001600020819055505050565b610272610d34565b806001600084600981111561028a576102896116dd565b5b600981111561029c5761029b6116dd565b5b815260200190815260200160002090816102b69190611c2a565b505050565b6102c3610d34565b6102cd6000610dbb565b565b6000600360003373ffffffffffffffffffffffffffffffffffffffff1673ffffffffffffffffffffffffffffffffffffffff16815260200190815260200160002060009054906101000a900460ff16905090565b600460003373ffffffffffffffffffffffffffffffffffffffff1673ffffffffffffffffffffffffffffffffffffffff168152602001908152602001600020600061036e9190610e87565b600360003373ffffffffffffffffffffffffffffffffffffffff1673ffffffffffffffffffffffffffffffffffffffff16815260200190815260200160002060006101000a81549060ff0219169055565b60008060009054906101000a900473ffffffffffffffffffffffffffffffffffffffff16905090565b80600360003373ffffffffffffffffffffffffffffffffffffffff1673ffffffffffffffffffffffffffffffffffffffff16815260200190815260200160002060006101000a81548160ff02191690831515021790555050565b6000815111610486576040517f08c379a000000000000000000000000000000000000000000000000000000000815260040161047d90611d59565b60405180910390fd5b6000600260003373ffffffffffffffffffffffffffffffffffffffff1673ffffffffffffffffffffffffffffffffffffffff168152602001908152602001600020600201549050604051806060016040528042815260200160011515815260200182815250600260003373ffffffffffffffffffffffffffffffffffffffff1673ffffffffffffffffffffffffffffffffffffffff1681526020019081526020016000206000820151816000015560208201518160010160006101000a81548160ff02191690831515021790555060408201518160020155905050600460003373ffffffffffffffffffffffffffffffffffffffff1673ffffffffffffffffffffffffffffffffffffffff16815260200190815260200160002060006105ac9190610e87565b60005b825181101561078f57600460003373ffffffffffffffffffffffffffffffffffffffff1673ffffffffffffffffffffffffffffffffffffffff16815260200190815260200160002083828151811061060a57610609611d79565b5b6020026020010151908060018154018082558091505060019003906000526020600020906009020160009091909190915060008201518160000160006101000a81548173ffffffffffffffffffffffffffffffffffffffff021916908373ffffffffffffffffffffffffffffffffffffffff16021790555060208201518160010190816106979190611c2a565b5060408201518160020190816106ad9190611c2a565b5060608201518160030190816106c39190611c2a565b5060808201518160040190816106d99190611c2a565b5060a08201518160050160006101000a81548160ff02191690836003811115610705576107046116dd565b5b021790555060c08201518160050160016101000a81548160ff02191690836009811115610735576107346116dd565b5b021790555060e082015181600601556101008201518160070160006101000a81548160ff021916908360028111156107705761076f6116dd565b5b02179055506101208201518160080155505080806001019150506105af565b505050565b600460003373ffffffffffffffffffffffffffffffffffffffff1673ffffffffffffffffffffffffffffffffffffffff16815260200190815260200160002060006107df9190610e87565b600360003373ffffffffffffffffffffffffffffffffffffffff1673ffffffffffffffffffffffffffffffffffffffff16815260200190815260200160002060006101000a81549060ff0219169055565b6060600460003373ffffffffffffffffffffffffffffffffffffffff1673ffffffffffffffffffffffffffffffffffffffff168152602001908152602001600020805480602002602001604051908101604052809291908181526020016000905b82821015610c275783829060005260206000209060090201604051806101400160405290816000820160009054906101000a900473ffffffffffffffffffffffffffffffffffffffff1673ffffffffffffffffffffffffffffffffffffffff1673ffffffffffffffffffffffffffffffffffffffff16815260200160018201805461091b90611a4d565b80601f016020809104026020016040519081016040528092919081815260200182805461094790611a4d565b80156109945780601f1061096957610100808354040283529160200191610994565b820191906000526020600020905b81548152906001019060200180831161097757829003601f168201915b505050505081526020016002820180546109ad90611a4d565b80601f01602080910402602001604051908101604052809291908181526020018280546109d990611a4d565b8015610a265780601f106109fb57610100808354040283529160200191610a26565b820191906000526020600020905b815481529060010190602001808311610a0957829003601f168201915b50505050508152602001600382018054610a3f90611a4d565b80601f0160208091040260200160405190810160405280929190818152602001828054610a6b90611a4d565b8015610ab85780601f10610a8d57610100808354040283529160200191610ab8565b820191906000526020600020905b815481529060010190602001808311610a9b57829003601f168201915b50505050508152602001600482018054610ad190611a4d565b80601f0160208091040260200160405190810160405280929190818152602001828054610afd90611a4d565b8015610b4a5780601f10610b1f57610100808354040283529160200191610b4a565b820191906000526020600020905b815481529060010190602001808311610b2d57829003601f168201915b505050505081526020016005820160009054906101000a900460ff166003811115610b7857610b776116dd565b5b6003811115610b8a57610b896116dd565b5b81526020016005820160019054906101000a900460ff166009811115610bb357610bb26116dd565b5b6009811115610bc557610bc46116dd565b5b8152602001600682015481526020016007820160009054906101000a900460ff166002811115610bf857610bf76116dd565b5b6002811115610c0a57610c096116dd565b5b815260200160088201548152505081526020019060010190610891565b50505050905090565b6000600560003373ffffffffffffffffffffffffffffffffffffffff1673ffffffffffffffffffffffffffffffffffffffff1681526020019081526020016000206000836003811115610c8657610c856116dd565b5b6003811115610c9857610c976116dd565b5b8152602001908152602001600020549050919050565b610cb6610d34565b600073ffffffffffffffffffffffffffffffffffffffff168173ffffffffffffffffffffffffffffffffffffffff1603610d285760006040517f1e4fbdf7000000000000000000000000000000000000000000000000000000008152600401610d1f91906112bf565b60405180910390fd5b610d3181610dbb565b50565b610d3c610e7f565b73ffffffffffffffffffffffffffffffffffffffff16610d5a6103bf565b73ffffffffffffffffffffffffffffffffffffffff1614610db957610d7d610e7f565b6040517f118cdaa7000000000000000000000000000000000000000000000000000000008152600401610db091906112bf565b60405180910390fd5b565b60008060009054906101000a900473ffffffffffffffffffffffffffffffffffffffff169050816000806101000a81548173ffffffffffffffffffffffffffffffffffffffff021916908373ffffffffffffffffffffffffffffffffffffffff1602179055508173ffffffffffffffffffffffffffffffffffffffff168173ffffffffffffffffffffffffffffffffffffffff167f8be0079c531659141344cd1fd0a4f28419497f9722a3daafe3b4186f6b6457e060405160405180910390a35050565b600033905090565b5080546000825560090290600052602060002090810190610ea89190610eab565b50565b5b80821115610f7157600080820160006101000a81549073ffffffffffffffffffffffffffffffffffffffff0219169055600182016000610eec9190610f75565b600282016000610efc9190610f75565b600382016000610f0c9190610f75565b600482016000610f1c9190610f75565b6005820160006101000a81549060ff02191690556005820160016101000a81549060ff021916905560068201600090556007820160006101000a81549060ff0219169055600882016000905550600901610eac565b5090565b508054610f8190611a4d565b6000825580601f10610f935750610fb2565b601f016020900490600052602060002090810190610fb19190610fb5565b5b50565b5b80821115610fce576000816000905550600101610fb6565b5090565b6000604051905090565b600080fd5b600080fd5b60048110610ff357600080fd5b50565b60008135905061100581610fe6565b92915050565b6000819050919050565b61101e8161100b565b811461102957600080fd5b50565b60008135905061103b81611015565b92915050565b6000806040838503121561105857611057610fdc565b5b600061106685828601610ff6565b92505060206110778582860161102c565b9150509250929050565b600a811061108e57600080fd5b50565b6000813590506110a081611081565b92915050565b600080fd5b600080fd5b6000601f19601f8301169050919050565b7f4e487b7100000000000000000000000000000000000000000000000000000000600052604160045260246000fd5b6110f9826110b0565b810181811067ffffffffffffffff82111715611118576111176110c1565b5b80604052505050565b600061112b610fd2565b905061113782826110f0565b919050565b600067ffffffffffffffff821115611157576111566110c1565b5b611160826110b0565b9050602081019050919050565b82818337600083830152505050565b600061118f61118a8461113c565b611121565b9050828152602081018484840111156111ab576111aa6110ab565b5b6111b684828561116d565b509392505050565b600082601f8301126111d3576111d26110a6565b5b81356111e384826020860161117c565b91505092915050565b6000806040838503121561120357611202610fdc565b5b600061121185828601611091565b925050602083013567ffffffffffffffff81111561123257611231610fe1565b5b61123e858286016111be565b9150509250929050565b60008115159050919050565b61125d81611248565b82525050565b60006020820190506112786000830184611254565b92915050565b600073ffffffffffffffffffffffffffffffffffffffff82169050919050565b60006112a98261127e565b9050919050565b6112b98161129e565b82525050565b60006020820190506112d460008301846112b0565b92915050565b6112e381611248565b81146112ee57600080fd5b50565b600081359050611300816112da565b92915050565b60006020828403121561131c5761131b610fdc565b5b600061132a848285016112f1565b91505092915050565b600067ffffffffffffffff82111561134e5761134d6110c1565b5b602082029050602081019050919050565b600080fd5b600080fd5b600080fd5b6113778161129e565b811461138257600080fd5b50565b6000813590506113948161136e565b92915050565b600381106113a757600080fd5b50565b6000813590506113b98161139a565b92915050565b600061014082840312156113d6576113d5611364565b5b6113e1610140611121565b905060006113f184828501611385565b600083015250602082013567ffffffffffffffff81111561141557611414611369565b5b611421848285016111be565b602083015250604082013567ffffffffffffffff81111561144557611444611369565b5b611451848285016111be565b604083015250606082013567ffffffffffffffff81111561147557611474611369565b5b611481848285016111be565b606083015250608082013567ffffffffffffffff8111156114a5576114a4611369565b5b6114b1848285016111be565b60808301525060a06114c584828501610ff6565b60a08301525060c06114d984828501611091565b60c08301525060e06114ed8482850161102c565b60e083015250610100611502848285016113aa565b610100830152506101206115188482850161102c565b6101208301525092915050565b600061153861153384611333565b611121565b9050808382526020820190506020840283018581111561155b5761155a61135f565b5b835b818110156115a257803567ffffffffffffffff8111156115805761157f6110a6565b5b80860161158d89826113bf565b8552602085019450505060208101905061155d565b5050509392505050565b600082601f8301126115c1576115c06110a6565b5b81356115d1848260208601611525565b91505092915050565b6000602082840312156115f0576115ef610fdc565b5b600082013567ffffffffffffffff81111561160e5761160d610fe1565b5b61161a848285016115ac565b91505092915050565b600081519050919050565b600082825260208201905092915050565b6000819050602082019050919050565b6116588161129e565b82525050565b600081519050919050565b600082825260208201905092915050565b60005b8381101561169857808201518184015260208101905061167d565b60008484015250505050565b60006116af8261165e565b6116b98185611669565b93506116c981856020860161167a565b6116d2816110b0565b840191505092915050565b7f4e487b7100000000000000000000000000000000000000000000000000000000600052602160045260246000fd5b6004811061171d5761171c6116dd565b5b50565b600081905061172e8261170c565b919050565b600061173e82611720565b9050919050565b61174e81611733565b82525050565b600a8110611765576117646116dd565b5b50565b600081905061177682611754565b919050565b600061178682611768565b9050919050565b6117968161177b565b82525050565b6117a58161100b565b82525050565b600381106117bc576117bb6116dd565b5b50565b60008190506117cd826117ab565b919050565b60006117dd826117bf565b9050919050565b6117ed816117d2565b82525050565b60006101408301600083015161180c600086018261164f565b506020830151848203602086015261182482826116a4565b9150506040830151848203604086015261183e82826116a4565b9150506060830151848203606086015261185882826116a4565b9150506080830151848203608086015261187282826116a4565b91505060a083015161188760a0860182611745565b5060c083015161189a60c086018261178d565b5060e08301516118ad60e086018261179c565b506101008301516118c26101008601826117e4565b506101208301516118d761012086018261179c565b508091505092915050565b60006118ee83836117f3565b905092915050565b6000602082019050919050565b600061190e82611623565b611918818561162e565b93508360208202850161192a8561163f565b8060005b85811015611966578484038952815161194785826118e2565b9450611952836118f6565b925060208a0199505060018101905061192e565b50829750879550505050505092915050565b600060208201905081810360008301526119928184611903565b905092915050565b6000602082840312156119b0576119af610fdc565b5b60006119be84828501610ff6565b91505092915050565b6119d08161100b565b82525050565b60006020820190506119eb60008301846119c7565b92915050565b600060208284031215611a0757611a06610fdc565b5b6000611a1584828501611385565b91505092915050565b7f4e487b7100000000000000000000000000000000000000000000000000000000600052602260045260246000fd5b60006002820490506001821680611a6557607f821691505b602082108103611a7857611a77611a1e565b5b50919050565b60008190508160005260206000209050919050565b60006020601f8301049050919050565b600082821b905092915050565b600060088302611ae07fffffffffffffffffffffffffffffffffffffffffffffffffffffffffffffffff82611aa3565b611aea8683611aa3565b95508019841693508086168417925050509392505050565b6000819050919050565b6000611b27611b22611b1d8461100b565b611b02565b61100b565b9050919050565b6000819050919050565b611b4183611b0c565b611b55611b4d82611b2e565b848454611ab0565b825550505050565b600090565b611b6a611b5d565b611b75818484611b38565b505050565b5b81811015611b9957611b8e600082611b62565b600181019050611b7b565b5050565b601f821115611bde57611baf81611a7e565b611bb884611a93565b81016020851015611bc7578190505b611bdb611bd385611a93565b830182611b7a565b50505b505050565b600082821c905092915050565b6000611c0160001984600802611be3565b1980831691505092915050565b6000611c1a8383611bf0565b9150826002028217905092915050565b611c338261165e565b67ffffffffffffffff811115611c4c57611c4b6110c1565b5b611c568254611a4d565b611c61828285611b9d565b600060209050601f831160018114611c945760008415611c82578287015190505b611c8c8582611c0e565b865550611cf4565b601f198416611ca286611a7e565b60005b82811015611cca57848901518255600182019150602085019450602081019050611ca5565b86831015611ce75784890151611ce3601f891682611bf0565b8355505b6001600288020188555050505b505050505050565b600082825260208201905092915050565b7f526563697069656e74732063616e6e6f7420626520656d707479000000000000600082015250565b6000611d43601a83611cfc565b9150611d4e82611d0d565b602082019050919050565b60006020820190508181036000830152611d7281611d36565b9050919050565b7f4e487b7100000000000000000000000000000000000000000000000000000000600052603260045260246000fdfea2646970667358221220bab569223ea97a646bf98dccf73487da8995addbd292d05f65bd5623a4a0fc2064736f6c634300081c0033",
  "linkReferences": {},
  "deployedLinkReferences": {}
}