{
  "_format": "hh-sol-artifact-1",
  "contractName": "DeWill",
  "sourceName": "contracts/DeWill.sol",
  "abi": [
    {
      "inputs": [],
      "stateMutability": "nonpayable",
      "type": "constructor"
    },
    {
      "inputs": [
        {
          "internalType": "address",
          "name": "owner",
          "type": "address"
        }
      ],
      "name": "OwnableInvalidOwner",
      "type": "error"
    },
    {
      "inputs": [
        {
          "internalType": "address",
          "name": "account",
          "type": "address"
        }
      ],
      "name": "OwnableUnauthorizedAccount",
      "type": "error"
    },
    {
      "anonymous": false,
      "inputs": [
        {
          "indexed": true,
          "internalType": "address",
          "name": "previousOwner",
          "type": "address"
        },
        {
          "indexed": true,
          "internalType": "address",
          "name": "newOwner",
          "type": "address"
        }
      ],
      "name": "OwnershipTransferred",
      "type": "event"
    },
    {
      "inputs": [
        {
          "internalType": "enum DeWill.Currency",
          "name": "_currency",
          "type": "uint8"
        }
      ],
      "name": "addBalance",
      "outputs": [],
      "stateMutability": "payable",
      "type": "function"
    },
    {
      "inputs": [
        {
          "components": [
            {
              "internalType": "string",
              "name": "text",
              "type": "string"
            },
            {
              "components": [
                {
                  "internalType": "address",
                  "name": "addr",
                  "type": "address"
                },
                {
                  "internalType": "string",
                  "name": "firstName",
                  "type": "string"
                },
                {
                  "internalType": "string",
                  "name": "lastName",
                  "type": "string"
                },
                {
                  "internalType": "string",
                  "name": "primaryEmail",
                  "type": "string"
                },
                {
                  "internalType": "string",
                  "name": "secondaryEmail",
                  "type": "string"
                },
                {
                  "internalType": "enum DeWill.Currency",
                  "name": "currency",
                  "type": "uint8"
                },
                {
                  "internalType": "enum DeWill.Country",
                  "name": "country",
                  "type": "uint8"
                },
                {
                  "internalType": "uint256",
                  "name": "age",
                  "type": "uint256"
                },
                {
                  "internalType": "enum DeWill.Gender",
                  "name": "gender",
                  "type": "uint8"
                },
                {
                  "internalType": "uint256",
                  "name": "percentage",
                  "type": "uint256"
                }
              ],
              "internalType": "struct DeWill.Recipient[]",
              "name": "recipients",
              "type": "tuple[]"
            }
          ],
          "internalType": "struct DeWill.Will",
          "name": "_will",
          "type": "tuple"
        }
      ],
      "name": "addRecipients",
      "outputs": [],
      "stateMutability": "nonpayable",
      "type": "function"
    },
    {
      "inputs": [
        {
          "internalType": "string",
          "name": "_email",
          "type": "string"
        },
        {
          "internalType": "string",
          "name": "_code",
          "type": "string"
        },
        {
          "internalType": "uint256",
          "name": "_percentage",
          "type": "uint256"
        },
        {
          "internalType": "string",
          "name": "_reason",
          "type": "string"
        },
        {
          "internalType": "uint256",
          "name": "_timestamp",
          "type": "uint256"
        }
      ],
      "name": "addRequest",
      "outputs": [],
      "stateMutability": "nonpayable",
      "type": "function"
    },
    {
      "inputs": [
        {
          "internalType": "enum DeWill.Currency",
          "name": "_currency",
          "type": "uint8"
        }
      ],
      "name": "getBalance",
      "outputs": [
        {
          "internalType": "uint256",
          "name": "",
          "type": "uint256"
        }
      ],
      "stateMutability": "view",
      "type": "function"
    },
    {
      "inputs": [],
      "name": "getKeys",
      "outputs": [
        {
          "internalType": "address[]",
          "name": "",
          "type": "address[]"
        }
      ],
      "stateMutability": "view",
      "type": "function"
    },
    {
      "inputs": [],
      "name": "getRecipients",
      "outputs": [
        {
          "components": [
            {
              "internalType": "address",
              "name": "addr",
              "type": "address"
            },
            {
              "internalType": "string",
              "name": "firstName",
              "type": "string"
            },
            {
              "internalType": "string",
              "name": "lastName",
              "type": "string"
            },
            {
              "internalType": "string",
              "name": "primaryEmail",
              "type": "string"
            },
            {
              "internalType": "string",
              "name": "secondaryEmail",
              "type": "string"
            },
            {
              "internalType": "enum DeWill.Currency",
              "name": "currency",
              "type": "uint8"
            },
            {
              "internalType": "enum DeWill.Country",
              "name": "country",
              "type": "uint8"
            },
            {
              "internalType": "uint256",
              "name": "age",
              "type": "uint256"
            },
            {
              "internalType": "enum DeWill.Gender",
              "name": "gender",
              "type": "uint8"
            },
            {
              "internalType": "uint256",
              "name": "percentage",
              "type": "uint256"
            }
          ],
          "internalType": "struct DeWill.Recipient[]",
          "name": "",
          "type": "tuple[]"
        }
      ],
      "stateMutability": "view",
      "type": "function"
    },
    {
      "inputs": [
        {
          "internalType": "address",
          "name": "user",
          "type": "address"
        }
      ],
      "name": "getRequests",
      "outputs": [
        {
          "components": [
            {
              "internalType": "string",
              "name": "email",
              "type": "string"
            },
            {
              "internalType": "string",
              "name": "code",
              "type": "string"
            },
            {
              "internalType": "uint256",
              "name": "percentage",
              "type": "uint256"
            },
            {
              "internalType": "string",
              "name": "reason",
              "type": "string"
            },
            {
              "internalType": "uint256",
              "name": "timestamp",
              "type": "uint256"
            }
          ],
          "internalType": "struct DeWill.Request[]",
          "name": "",
          "type": "tuple[]"
        }
      ],
      "stateMutability": "view",
      "type": "function"
    },
    {
      "inputs": [],
      "name": "getStaking",
      "outputs": [
        {
          "internalType": "bool",
          "name": "",
          "type": "bool"
        }
      ],
      "stateMutability": "view",
      "type": "function"
    },
    {
      "inputs": [],
      "name": "getWill",
      "outputs": [
        {
          "components": [
            {
              "internalType": "string",
              "name": "text",
              "type": "string"
            },
            {
              "components": [
                {
                  "internalType": "address",
                  "name": "addr",
                  "type": "address"
                },
                {
                  "internalType": "string",
                  "name": "firstName",
                  "type": "string"
                },
                {
                  "internalType": "string",
                  "name": "lastName",
                  "type": "string"
                },
                {
                  "internalType": "string",
                  "name": "primaryEmail",
                  "type": "string"
                },
                {
                  "internalType": "string",
                  "name": "secondaryEmail",
                  "type": "string"
                },
                {
                  "internalType": "enum DeWill.Currency",
                  "name": "currency",
                  "type": "uint8"
                },
                {
                  "internalType": "enum DeWill.Country",
                  "name": "country",
                  "type": "uint8"
                },
                {
                  "internalType": "uint256",
                  "name": "age",
                  "type": "uint256"
                },
                {
                  "internalType": "enum DeWill.Gender",
                  "name": "gender",
                  "type": "uint8"
                },
                {
                  "internalType": "uint256",
                  "name": "percentage",
                  "type": "uint256"
                }
              ],
              "internalType": "struct DeWill.Recipient[]",
              "name": "recipients",
              "type": "tuple[]"
            }
          ],
          "internalType": "struct DeWill.Will",
          "name": "",
          "type": "tuple"
        }
      ],
      "stateMutability": "view",
      "type": "function"
    },
    {
      "inputs": [
        {
          "internalType": "address",
          "name": "",
          "type": "address"
        }
      ],
      "name": "isAdded",
      "outputs": [
        {
          "internalType": "bool",
          "name": "",
          "type": "bool"
        }
      ],
      "stateMutability": "view",
      "type": "function"
    },
    {
      "inputs": [],
      "name": "optOut",
      "outputs": [],
      "stateMutability": "nonpayable",
      "type": "function"
    },
    {
      "inputs": [],
      "name": "owner",
      "outputs": [
        {
          "internalType": "address",
          "name": "",
          "type": "address"
        }
      ],
      "stateMutability": "view",
      "type": "function"
    },
    {
      "inputs": [],
      "name": "removeRecipients",
      "outputs": [],
      "stateMutability": "nonpayable",
      "type": "function"
    },
    {
      "inputs": [],
      "name": "renounceOwnership",
      "outputs": [],
      "stateMutability": "nonpayable",
      "type": "function"
    },
    {
      "inputs": [
        {
          "internalType": "enum DeWill.Country",
          "name": "_country",
          "type": "uint8"
        },
        {
          "internalType": "string",
          "name": "_currency",
          "type": "string"
        }
      ],
      "name": "setCountryCurrency",
      "outputs": [],
      "stateMutability": "nonpayable",
      "type": "function"
    },
    {
      "inputs": [
        {
          "internalType": "bool",
          "name": "_status",
          "type": "bool"
        }
      ],
      "name": "setStaking",
      "outputs": [],
      "stateMutability": "nonpayable",
      "type": "function"
    },
    {
      "inputs": [
        {
          "internalType": "address",
          "name": "newOwner",
          "type": "address"
        }
      ],
      "name": "transferOwnership",
      "outputs": [],
      "stateMutability": "nonpayable",
      "type": "function"
    },
    {
      "inputs": [
        {
          "internalType": "enum DeWill.Currency",
          "name": "_currency",
          "type": "uint8"
        },
        {
          "internalType": "uint256",
          "name": "_amount",
          "type": "uint256"
        }
      ],
      "name": "withdrawBalance",
      "outputs": [],
      "stateMutability": "nonpayable",
      "type": "function"
    }
  ],
  "bytecode": "0x6080604052346100275761001161046a565b61001961002c565b6133296106fc823961332990f35b610032565b60405190565b600080fd5b634e487b7160e01b600052602160045260246000fd5b600a111561005757565b610037565b906100668261004d565b565b6100719061005c565b90565b9061007e90610068565b600052602052604060002090565b634e487b7160e01b600052602260045260246000fd5b90600160028304921680156100c2575b60208310146100bd57565b61008c565b91607f16916100b2565b600052602060002090565b601f602091010490565b1b90565b919060086101019102916100fb600019846100e1565b926100e1565b9181191691161790565b90565b90565b61012561012061012a9261010b565b61010e565b61010b565b90565b90565b919061014661014161014e93610111565b61012d565b9083546100e5565b9055565b600090565b61016991610163610152565b91610130565b565b5b818110610177575050565b806101856000600193610157565b0161016c565b9190601f811161019b575b505050565b6101a76101cc936100cc565b9060206101b3846100d7565b830193106101d4575b6101c5906100d7565b019061016b565b388080610196565b91506101c5819290506101bc565b6101f760036101f183546100a2565b8361018b565b60067f494e520000000000000000000000000000000000000000000000000000000000019055565b610228906101e2565b565b61023f600361023983546100a2565b8361018b565b60067f5553440000000000000000000000000000000000000000000000000000000000019055565b6102709061022a565b565b610287600361028183546100a2565b8361018b565b60067f4742500000000000000000000000000000000000000000000000000000000000019055565b6102b890610272565b565b6102cf60036102c983546100a2565b8361018b565b60067f4a50590000000000000000000000000000000000000000000000000000000000019055565b610300906102ba565b565b610317600361031183546100a2565b8361018b565b60067f4341440000000000000000000000000000000000000000000000000000000000019055565b61034890610302565b565b61035f600361035983546100a2565b8361018b565b60067f4155440000000000000000000000000000000000000000000000000000000000019055565b6103909061034a565b565b6103a760036103a183546100a2565b8361018b565b60067f434e590000000000000000000000000000000000000000000000000000000000019055565b6103d890610392565b565b6103ef60036103e983546100a2565b8361018b565b60067f5255420000000000000000000000000000000000000000000000000000000000019055565b610420906103da565b565b610437600361043183546100a2565b8361018b565b60067f4348460000000000000000000000000000000000000000000000000000000000019055565b61046890610422565b565b61047333610595565b6104886104836001600090610074565b61021f565b61049b610496600180610074565b610267565b6104b06104ab6001600290610074565b6102af565b6104c56104c06001600390610074565b6102f7565b6104da6104d56001600490610074565b61033f565b6104ef6104ea6001600590610074565b610387565b6105046104ff6001600690610074565b6103cf565b6105196105146001600790610074565b610417565b61052e6105296001600890610074565b61045f565b565b90565b60018060a01b031690565b61055261054d61055792610530565b61010e565b610533565b90565b6105639061053e565b90565b61056f90610533565b90565b61057b90610566565b9052565b919061059390600060208501940190610572565b565b806105b16105ab6105a6600061055a565b610566565b91610566565b146105c1576105bf9061069a565b565b6105e66105ce600061055a565b6000918291631e4fbdf760e01b83526004830161057f565b0390fd5b60001c90565b60018060a01b031690565b61060761060c916105ea565b6105f0565b90565b61061990546105fb565b90565b60001b90565b9061063360018060a01b039161061c565b9181191691161790565b61065161064c61065692610533565b61010e565b610533565b90565b6106629061063d565b90565b61066e90610659565b90565b90565b9061068961068461069092610665565b610671565b8254610622565b9055565b60000190565b6106a4600061060f565b6106af826000610674565b906106e36106dd7f8be0079c531659141344cd1fd0a4f28419497f9722a3daafe3b4186f6b6457e093610665565b91610665565b916106ec61002c565b806106f681610694565b0390a356fe60806040526004361015610013575b6110fb565b61001e60003561013d565b80630b9772a51461013857806313495ba1146101335780631a1ab9501461012e5780632150c518146101295780634646d78514610124578063715018a61461011f5780637b1391a61461011a578063804e44f31461011557806384feda3c146101105780638902191d1461010b5780638da5cb5b14610106578063910730a814610101578063acafb964146100fc578063c8914edb146100f7578063d4eec5a6146100f2578063d78d610b146100ed578063e3a12480146100e85763f2fde38b0361000e576110c8565b611093565b61103b565b610f7e565b610f49565b610e7d565b610b8e565b610b16565b610ac0565b610a97565b610a43565b6108b9565b61085e565b61082a565b610791565b6106c8565b610398565b610315565b60e01c90565b60405190565b600080fd5b600080fd5b600080fd5b600080fd5b600080fd5b601f801991011690565b634e487b7160e01b600052604160045260246000fd5b9061018c90610162565b810190811067ffffffffffffffff8211176101a657604052565b61016c565b906101be6101b7610143565b9283610182565b565b67ffffffffffffffff81116101de576101da602091610162565b0190565b61016c565b90826000939282370152565b909291926102046101ff826101c0565b6101ab565b938185526020850190828401116102205761021e926101e3565b565b61015d565b9080601f8301121561024357816020610240933591016101ef565b90565b610158565b90565b61025481610248565b0361025b57565b600080fd5b9050359061026d8261024b565b565b919060a08382031261030a57600083013567ffffffffffffffff8111610305578161029b918501610225565b92602081013567ffffffffffffffff811161030057826102bc918301610225565b926102ca8360408401610260565b9260608301359067ffffffffffffffff82116102fb576102ef816102f8938601610225565b93608001610260565b90565b610153565b610153565b610153565b61014e565b60000190565b346103475761033161032836600461026f565b9392909261150b565b610339610143565b806103438161030f565b0390f35b610149565b6004111561035657565b600080fd5b905035906103688261034c565b565b91906040838203126103935780610387610390926000860161035b565b93602001610260565b90565b61014e565b346103c7576103b16103ab36600461036a565b9061194c565b6103b9610143565b806103c38161030f565b0390f35b610149565b60009103126103d757565b61014e565b5190565b60209181520190565b60005b8381106103fd575050906000910152565b8060209183015181850152016103ec565b61042d61043660209361043b93610424816103dc565b938480936103e0565b958691016103e9565b610162565b0190565b5190565b60209181520190565b60200190565b60018060a01b031690565b61046690610452565b90565b6104729061045d565b9052565b634e487b7160e01b600052602160045260246000fd5b6004111561049657565b610476565b906104a58261048c565b565b6104b09061049b565b90565b6104bc906104a7565b9052565b600a11156104ca57565b610476565b906104d9826104c0565b565b6104e4906104cf565b90565b6104f0906104db565b9052565b6104fd90610248565b9052565b6003111561050b57565b610476565b9061051a82610501565b565b61052590610510565b90565b6105319061051c565b9052565b906105fe90610120806105a9610597610585610573610140870161056160008b015160008a0190610469565b60208a015188820360208a015261040e565b6040890151878203604089015261040e565b6060880151868203606088015261040e565b6080870151858203608087015261040e565b946105bc60a082015160a08601906104b3565b6105ce60c082015160c08601906104e7565b6105e060e082015160e08601906104f4565b6105f4610100820151610100860190610528565b01519101906104f4565b90565b9061060b91610535565b90565b60200190565b906106286106218361043f565b8092610443565b90816106396020830284019461044c565b926000915b83831061064d57505050505090565b9091929394602061066f61066983856001950387528951610601565b9761060e565b930193019193929061063e565b6106ac91602061069b604083016000850151848203600086015261040e565b920151906020818403910152610614565b90565b6106c5916020820191600081840391015261067c565b90565b346106f8576106d83660046103cc565b6106f46106e3611e05565b6106eb610143565b918291826106af565b0390f35b610149565b5190565b60209181520190565b60200190565b9061071d81602093610469565b0190565b60200190565b9061074461073e610737846106fd565b8093610701565b9261070a565b9060005b8181106107555750505090565b90919261076e6107686001928651610710565b94610721565b9101919091610748565b61078e9160208201916000818403910152610727565b90565b346107c1576107a13660046103cc565b6107bd6107ac611ee8565b6107b4610143565b91829182610778565b0390f35b610149565b600a11156107d057565b600080fd5b905035906107e2826107c6565b565b919091604081840312610825576107fe83600083016107d5565b92602082013567ffffffffffffffff81116108205761081d9201610225565b90565b610153565b61014e565b346108595761084361083d3660046107e4565b90611f4c565b61084b610143565b806108558161030f565b0390f35b610149565b3461088c5761086e3660046103cc565b610876611fa6565b61087e610143565b806108888161030f565b0390f35b610149565b151590565b61089f90610891565b9052565b91906108b790600060208501940190610896565b565b346108e9576108c93660046103cc565b6108e56108d4611fd6565b6108dc610143565b918291826108a3565b0390f35b610149565b6108f78161045d565b036108fe57565b600080fd5b90503590610910826108ee565b565b9060208282031261092c5761092991600001610903565b90565b61014e565b5190565b60209181520190565b60200190565b906109ac906080806109a161097d61096b60a086016000890151878203600089015261040e565b6020880151868203602088015261040e565b61098f604088015160408701906104f4565b6060870151858203606087015261040e565b9401519101906104f4565b90565b906109b991610944565b90565b60200190565b906109d66109cf83610931565b8092610935565b90816109e76020830284019461093e565b926000915b8383106109fb57505050505090565b90919293946020610a1d610a17838560019503875289516109af565b976109bc565b93019301919392906109ec565b610a4091602082019160008184039101526109c2565b90565b34610a7357610a6f610a5e610a59366004610912565b612136565b610a66610143565b91829182610a2a565b0390f35b610149565b90602082820312610a9257610a8f9160000161035b565b90565b61014e565b610aaa610aa5366004610a78565b612224565b610ab2610143565b80610abc8161030f565b0390f35b34610aee57610ad03660046103cc565b610ad8612658565b610ae0610143565b80610aea8161030f565b0390f35b610149565b610afc9061045d565b9052565b9190610b1490600060208501940190610af3565b565b34610b4657610b263660046103cc565b610b42610b3161268b565b610b39610143565b91829182610b00565b0390f35b610149565b610b5481610891565b03610b5b57565b600080fd5b90503590610b6d82610b4b565b565b90602082820312610b8957610b8691600001610b60565b90565b61014e565b34610bbc57610ba6610ba1366004610b6f565b6126d7565b610bae610143565b80610bb88161030f565b0390f35b610149565b600080fd5b600080fd5b67ffffffffffffffff8111610be35760208091020190565b61016c565b600080fd5b60031115610bf757565b600080fd5b90503590610c0982610bed565b565b91909161014081840312610d3e57610c246101406101ab565b92610c328160008401610903565b6000850152602082013567ffffffffffffffff8111610d395781610c57918401610225565b6020850152604082013567ffffffffffffffff8111610d345781610c7c918401610225565b6040850152606082013567ffffffffffffffff8111610d2f5781610ca1918401610225565b606085015260808201359167ffffffffffffffff8311610d2a57610cca82610d22948301610225565b6080860152610cdc8260a0830161035b565b60a0860152610cee8260c083016107d5565b60c0860152610d008260e08301610260565b60e0860152610d13826101008301610bfc565b61010086015261012001610260565b610120830152565b610bc6565b610bc6565b610bc6565b610bc6565b610bc1565b929190610d57610d5282610bcb565b6101ab565b9381855260208086019202810191838311610dae5781905b838210610d7d575050505050565b813567ffffffffffffffff8111610da957602091610d9e8784938701610c0b565b815201910190610d6f565b610158565b610be8565b9080601f83011215610dd157816020610dce93359101610d43565b90565b610158565b919091604081840312610e4257610ded60406101ab565b92600082013567ffffffffffffffff8111610e3d5781610e0e918401610225565b6000850152602082013567ffffffffffffffff8111610e3857610e319201610db3565b6020830152565b610bc6565b610bc6565b610bc1565b90602082820312610e7857600082013567ffffffffffffffff8111610e7357610e709201610dd6565b90565b610153565b61014e565b34610eab57610e95610e90366004610e47565b612b65565b610e9d610143565b80610ea78161030f565b0390f35b610149565b90565b610ec7610ec2610ecc92610452565b610eb0565b610452565b90565b610ed890610eb3565b90565b610ee490610ecf565b90565b90610ef190610edb565b600052602052604060002090565b1c90565b60ff1690565b610f19906008610f1e9302610eff565b610f03565b90565b90610f2c9154610f09565b90565b610f4690610f41600891600092610ee7565b610f21565b90565b34610f7957610f75610f64610f5f366004610912565b610f2f565b610f6c610143565b918291826108a3565b0390f35b610149565b34610fac57610f8e3660046103cc565b610f96612e35565b610f9e610143565b80610fa88161030f565b0390f35b610149565b60209181520190565b90610fce610fc78361043f565b8092610fb1565b9081610fdf6020830284019461044c565b926000915b838310610ff357505050505090565b9091929394602061101561100f83856001950387528951610601565b9761060e565b9301930191939290610fe4565b6110389160208201916000818403910152610fba565b90565b3461106b5761104b3660046103cc565b611067611056612f63565b61105e610143565b91829182611022565b0390f35b610149565b61107990610248565b9052565b919061109190600060208501940190611070565b565b346110c3576110bf6110ae6110a9366004610a78565b612f86565b6110b6610143565b9182918261107d565b0390f35b610149565b346110f6576110e06110db366004610912565b613017565b6110e8610143565b806110f28161030f565b0390f35b610149565b600080fd5b61110a60a06101ab565b90565b52565b9061111a90610248565b9052565b9061112890610edb565b600052602052604060002090565b90565b600052602060002090565b634e487b7160e01b600052603260045260246000fd5b5490565b6111678161115a565b82101561118257611179600591611139565b91020190600090565b611144565b634e487b7160e01b600052600060045260246000fd5b5190565b634e487b7160e01b600052602260045260246000fd5b90600160028304921680156111d7575b60208310146111d257565b6111a1565b91607f16916111c7565b600052602060002090565b601f602091010490565b1b90565b91906008611216910291611210600019846111f6565b926111f6565b9181191691161790565b61123461122f61123992610248565b610eb0565b610248565b90565b90565b919061125561125061125d93611220565b61123c565b9083546111fa565b9055565b600090565b61127891611272611261565b9161123f565b565b5b818110611286575050565b806112946000600193611266565b0161127b565b9190601f81116112aa575b505050565b6112b66112db936111e1565b9060206112c2846111ec565b830193106112e3575b6112d4906111ec565b019061127a565b3880806112a5565b91506112d4819290506112cb565b906113029060001990600802610eff565b191690565b81611311916112f1565b906002021790565b90611323816103dc565b9067ffffffffffffffff82116113e5576113478261134185546111b7565b8561129a565b602090601f831160011461137c5791809161136b93600092611370575b5050611307565b90555b565b90915001513880611364565b601f1983169161138b856111e1565b9260005b8181106113cd575091600293918560019694106113b3575b5050500201905561136e565b6113c3910151601f8416906112f1565b90553880806113a7565b9193602060018192878701518155019501920161138f565b61016c565b906113f491611319565b565b6114009051610248565b90565b60001b90565b9061141660001991611403565b9181191691161790565b9061143561143061143c92611220565b61123c565b8254611409565b9055565b906114b8608060046114be946114656000820161145f6000880161119d565b906113ea565b61147e600182016114786020880161119d565b906113ea565b61149760028201611491604088016113f6565b90611420565b6114b0600382016114aa6060880161119d565b906113ea565b0192016113f6565b90611420565b565b91906114d1576114cf91611440565b565b611187565b908154916801000000000000000083101561150657826114fe9160016115049501815561115e565b906114c0565b565b61016c565b6115769461154b61155d94939561154261155494979591939561153961152f611100565b9960008b0161110d565b6020890161110d565b60408701611110565b6060850161110d565b60808301611110565b61157161156c6005339061111e565b611136565b6114d6565b565b90565b61158f61158a61159492611578565b610eb0565b610248565b90565b60209181520190565b60207f72207468616e2030000000000000000000000000000000000000000000000000917f5769746864726177616c20616d6f756e74206d7573742062652067726561746560008201520152565b6115fb6028604092611597565b611604816115a0565b0190565b61161e90602081019060008183039101526115ee565b90565b1561162857565b611630610143565b62461bcd60e51b81528061164660048201611608565b0390fd5b60207f20737570706f7274656400000000000000000000000000000000000000000000917f4f6e6c792045544820286d617070656420617320456c656374726f6e65756d2960008201520152565b6116a5602a604092611597565b6116ae8161164a565b0190565b6116c89060208101906000818303910152611698565b90565b156116d257565b6116da610143565b62461bcd60e51b8152806116f0600482016116b2565b0390fd5b906116fe90610edb565b600052602052604060002090565b6117159061049b565b90565b906117229061170c565b600052602052604060002090565b60001c90565b90565b61174561174a91611730565b611736565b90565b6117579054611739565b90565b60007f496e73756666696369656e742062616c616e6365000000000000000000000000910152565b61178f6014602092611597565b6117988161175a565b0190565b6117b29060208101906000818303910152611782565b90565b156117bc57565b6117c4610143565b62461bcd60e51b8152806117da6004820161179c565b0390fd5b634e487b7160e01b600052601160045260246000fd5b61180361180991939293610248565b92610248565b820391821161181457565b6117de565b61182290610eb3565b90565b61182e90611819565b90565b61183a90610ecf565b90565b905090565b61184e6000809261183d565b0190565b61185b90611842565b90565b67ffffffffffffffff811161187c57611878602091610162565b0190565b61016c565b9061189361188e8361185e565b6101ab565b918252565b606090565b3d6000146118ba576118ae3d611881565b903d6000602084013e5b565b6118c2611898565b906118b8565b60007f4661696c656420746f2073656e64204554480000000000000000000000000000910152565b6118fd6012602092611597565b611906816118c8565b0190565b61192090602081019060008183039101526118f0565b90565b1561192a57565b611932610143565b62461bcd60e51b8152806119486004820161190a565b0390fd5b6000611a2f926119f882936119738361196d6119678761157b565b91610248565b11611621565b6119908161198a611984600361049b565b9161049b565b146116cb565b6119ca6119b16119ac6119a5600733906116f4565b8490611718565b61174d565b6119c36119bd86610248565b91610248565b10156117b5565b6119f26119e384926119de600733906116f4565b611718565b916119ed8361174d565b6117f4565b90611420565b611a09611a0433611825565b611831565b90611a12610143565b9081611a1d81611852565b03925af1611a2961189d565b50611923565b565b611a3b60406101ab565b90565b606090565b606090565b611a50611a31565b9060208083611a5d611a3e565b815201611a68611a43565b81525050565b611a76611a48565b90565b90611a8390610edb565b600052602052604060002090565b9060009291805490611aac611aa5836111b7565b80946103e0565b91600181169081600014611b055750600114611ac8575b505050565b611ad591929394506111e1565b916000925b818410611aed5750500190388080611ac3565b60018160209295939554848601520191019290611ada565b92949550505060ff1916825215156020020190388080611ac3565b90611b2a91611a91565b90565b90611b4d611b4692611b3d610143565b93848092611b20565b0383610182565b565b5490565b90611b65611b6083610bcb565b6101ab565b918252565b600052602060002090565b60018060a01b031690565b611b8c611b9191611730565b611b75565b90565b611b9e9054611b80565b90565b90611bab9061045d565b9052565b60ff1690565b611bc1611bc691611730565b611baf565b90565b611bd39054611bb5565b90565b90611be09061049b565b9052565b60081c90565b60ff1690565b611bfc611c0191611be4565b611bea565b90565b611c0e9054611bf0565b90565b90611c1b906104cf565b9052565b60ff1690565b611c31611c3691611730565b611c1f565b90565b611c439054611c25565b90565b90611c5090610510565b9052565b611c5f6101406101ab565b90565b90611d5d611d536008611c73611c54565b94611c8c611c8360008301611b94565b60008801611ba1565b611ca4611c9b60018301611b2d565b6020880161110d565b611cbc611cb360028301611b2d565b6040880161110d565b611cd4611ccb60038301611b2d565b6060880161110d565b611cec611ce360048301611b2d565b6080880161110d565b611d04611cfb60058301611bc9565b60a08801611bd6565b611d1c611d1360058301611c04565b60c08801611c11565b611d34611d2b6006830161174d565b60e08801611110565b611d4d611d4360078301611c39565b6101008801611c46565b0161174d565b6101208401611110565b565b611d6890611c62565b90565b90611d7582611b4f565b611d7e81611b53565b92611d8c6020850191611b6a565b6000915b838310611d9d5750505050565b60096020600192611dad85611d5f565b815201920192019190611d90565b52565b90611df7611dee6001611dcf611a31565b94611de8611ddf60008301611b2d565b6000880161110d565b01611d6b565b60208401611dbb565b565b611e0290611dbe565b90565b611e0d611a6e565b50611e22611e1d60043390611a79565b611df9565b90565b606090565b5490565b60209181520190565b600052602060002090565b611e4c9054611b80565b90565b60010190565b90611e72611e6c611e6584611e2a565b8093611e2e565b92611e37565b9060005b818110611e835750505090565b909192611ea3611e9d600192611e9887611e42565b610710565b94611e4f565b9101919091611e76565b90611eb791611e55565b90565b90611eda611ed392611eca610143565b93848092611ead565b0383610182565b565b611ee590611eba565b90565b611ef0611e25565b50611efb6006611edc565b90565b90611f1091611f0b613022565b611f36565b565b611f1b906104cf565b90565b90611f2890611f12565b600052602052604060002090565b611f45611f4a92916001611f1e565b6113ea565b565b90611f5691611efe565b565b611f60613022565b611f68611f92565b565b611f7e611f79611f8392611578565b610eb0565b610452565b90565b611f8f90611f6a565b90565b611fa4611f9f6000611f86565b613071565b565b611fae611f58565b565b600090565b611fc1611fc691611730565b610f03565b90565b611fd39054611fb5565b90565b611fde611fb0565b50611ff3611fee60033390610ee7565b611fc9565b90565b606090565b5490565b67ffffffffffffffff81116120175760208091020190565b61016c565b9061202e61202983611fff565b6101ab565b918252565b600052602060002090565b61204860a06101ab565b90565b906120cc6120c3600461205c61203e565b9461207561206c60008301611b2d565b6000880161110d565b61208d61208460018301611b2d565b6020880161110d565b6120a561209c6002830161174d565b60408801611110565b6120bd6120b460038301611b2d565b6060880161110d565b0161174d565b60808401611110565b565b6120d79061204b565b90565b906120e482611ffb565b6120ed8161201c565b926120fb6020850191612033565b6000915b83831061210c5750505050565b6005602060019261211c856120ce565b8152019201920191906120ff565b612133906120da565b90565b61214d61215291612145611ff6565b50600561111e565b61212a565b90565b60207f2030000000000000000000000000000000000000000000000000000000000000917f4d7573742073656e64204554482076616c75652067726561746572207468616e60008201520152565b6121b06022604092611597565b6121b981612155565b0190565b6121d390602081019060008183039101526121a3565b90565b156121dd57565b6121e5610143565b62461bcd60e51b8152806121fb600482016121bd565b0390fd5b61220e61221491939293610248565b92610248565b820180921161221f57565b6117de565b612290906122453461223f612239600061157b565b91610248565b116121d6565b6122628161225c612256600361049b565b9161049b565b146116cb565b61228a61227b3492612276600733906116f4565b611718565b916122858361174d565b6121ff565b90611420565b565b906122a69060001990602003600802610eff565b8154169055565b906000916122c56122bd826111e1565b928354611307565b905555565b9192906020821060001461232457601f84116001146122f4576122ee929350611307565b90555b5b565b509061231a61231f93600161231161230b856111e1565b926111ec565b8201910161127a565b6122ad565b6122f1565b5061235b82936123356001946111e1565b612354612341856111ec565b820192601f861680612366575b506111ec565b019061127a565b6002021790556122f2565b61237290888603612292565b3861234e565b9290916801000000000000000082116123da576020116000146123cb57602081106000146123af576123a991611307565b90555b5b565b60019160ff19166123bf846111e1565b556002020190556123ac565b600191506002020190556123ad565b61016c565b9081546123eb816111b7565b90818311612414575b818310612402575b50505050565b61240b936122ca565b388080806123fc565b61242083838387612378565b6123f4565b61243461243a91939293610248565b92610248565b91612446838202610248565b92818404149015171561245557565b6117de565b6000612465916123df565b565b9060000361247a576124789061245a565b565b611187565b61248a906009612425565b90565b600060086124ed9282808201556124a78360018301612467565b6124b48360028301612467565b6124c18360038301612467565b6124ce8360048301612467565b8260058201556124e18360068301611266565b82600782015501611266565b565b90600003612502576125009061248d565b565b611187565b5b818110612513575050565b8061252160006009936124ef565b01612508565b9091828110612536575b505050565b61255461254e61254861255f9561247f565b9261247f565b92611b6a565b918201910190612507565b388080612531565b90680100000000000000008111612590578161258561258e93611b4f565b90828155612527565b565b61016c565b60006125a091612567565b565b906000036125b5576125b390612595565b565b611187565b600060016125d4926125ce83808301612467565b016125a2565b565b906000036125e9576125e7906125ba565b565b611187565b9190600861260991029161260360ff846111f6565b926111f6565b9181191691161790565b61261c90610891565b90565b90565b919061263861263361264093612613565b61261f565b9083546125ee565b9055565b61265691612650611fb0565b91612622565b565b61266e600061266960043390611a79565b6125d6565b612684600061267f60033390610ee7565b612644565b565b600090565b612693612686565b5061269e6000611b94565b90565b906126ad60ff91611403565b9181191691161790565b906126cc6126c76126d392612613565b61261f565b82546126a1565b9055565b6126ec906126e760033390610ee7565b6126b7565b565b90565b61270561270061270a926126ee565b610eb0565b610248565b90565b61271760406101ab565b90565b9061272490610edb565b600052602052604060002090565b9061275f602060016127659461275760008201612751600088016113f6565b90611420565b0192016113f6565b90611420565b565b9061277191612732565b565b67ffffffffffffffff811161278b5760208091020190565b61016c565b906127a261279d83612773565b6101ab565b918252565b369037565b906127d16127b983612790565b926020806127c78693612773565b92019103906127a7565b565b60016127df9101610248565b90565b906127ec8261043f565b8110156127fd576020809102010190565b611144565b61280c905161045d565b90565b90612819826106fd565b81101561282a576020809102010190565b611144565b60007f4475706c696361746520726563697069656e747320666f756e64000000000000910152565b612864601a602092611597565b61286d8161282f565b0190565b6128879060208101906000818303910152612857565b90565b1561289157565b612899610143565b62461bcd60e51b8152806128af60048201612871565b0390fd5b5190565b5190565b906128cc60018060a01b0391611403565b9181191691161790565b90565b906128ee6128e96128f592610edb565b6128d6565b82546128bb565b9055565b612903905161049b565b90565b90565b9061291e6129196129259261170c565b612906565b82546126a1565b9055565b61293390516104cf565b90565b60081b90565b9061294961ff0091612936565b9181191691161790565b90565b9061296b61296661297292611f12565b612953565b825461293c565b9055565b6129809051610510565b90565b61298c90610510565b90565b90565b906129a76129a26129ae92612983565b61298f565b82546126a1565b9055565b90612aa96101206008612aaf946129d8600082016129d260008801612802565b906128d9565b6129f1600182016129eb6020880161119d565b906113ea565b612a0a60028201612a046040880161119d565b906113ea565b612a2360038201612a1d6060880161119d565b906113ea565b612a3c60048201612a366080880161119d565b906113ea565b612a5560058201612a4f60a088016128f9565b90612909565b612a6e60058201612a6860c08801612929565b90612956565b612a8760068201612a8160e088016113f6565b90611420565b612aa160078201612a9b6101008801612976565b90612992565b0192016113f6565b90611420565b565b90612abb916129b2565b565b612ae2612adc612acc8461043f565b93612ad78585612567565b61044c565b91611b6a565b6000915b838310612af35750505050565b6009602082612b0c612b066001956128b7565b86612ab1565b01920192019190612ae6565b90612b2291612abd565b565b90612b5160206001612b5794612b4960008201612b436000880161119d565b906113ea565b0192016128b3565b90612b18565b565b90612b6391612b24565b565b612b7b6001612b7660083390610ee7565b6126b7565b602081015191612bcf612b9b42612b9563096601806126f1565b906121ff565b612bbe4291612bb5612bab61270d565b9360008501611110565b60208301611110565b612bca6002339061271a565b612767565b612be0612bdb8461043f565b6127ac565b90612beb600061157b565b925b83612c08612c02612bfd8861043f565b610248565b91610248565b1015612cb357612c256000612c1e8787906127e2565b5101612802565b94612c30600061157b565b5b80612c44612c3e88610248565b91610248565b1015612c8757612c8290612c7d612c64612c5f88849061280f565b612802565b612c76612c708b61045d565b9161045d565b141561288a565b6127d3565b612c31565b50929493612ca5612caa9295612ca0889184909261280f565b611ba1565b6127d3565b92939193612bed565b91509250612ce39150612cd26000612ccd60043390611a79565b6125d6565b612cde60043390611a79565b612b59565b565b60006001612cff92612cf983808301611266565b01611266565b565b90600003612d1457612d1290612ce5565b565b611187565b612d24906005612425565b90565b60006004612d6892612d3b83808301612467565b612d488360018301612467565b612d558360028301611266565b612d628360038301612467565b01611266565b565b90600003612d7d57612d7b90612d27565b565b611187565b5b818110612d8e575050565b80612d9c6000600593612d6a565b01612d83565b9091828110612db1575b505050565b612dcf612dc9612dc3612dda95612d19565b92612d19565b92612033565b918201910190612d82565b388080612dac565b90680100000000000000008111612e0b5781612e00612e0993611ffb565b90828155612da2565b565b61016c565b6000612e1b91612de2565b565b90600003612e3057612e2e90612e10565b565b611187565b612e4b6000612e4660043390611a79565b6125d6565b612e616000612e5c60033390610ee7565b612644565b612e6a33613220565b612e806000612e7b60083390610ee7565b612644565b612e966000612e916002339061271a565b612d01565b612eac6000612ea76005339061111e565b612e1d565b612ed5612eb9600061157b565b612ed0612ec8600733906116f4565b600090611718565b611420565b612efe612ee2600061157b565b612ef9612ef1600733906116f4565b600190611718565b611420565b612f27612f0b600061157b565b612f22612f1a600733906116f4565b600290611718565b611420565b612f50612f34600061157b565b612f4b612f43600733906116f4565b600390611718565b611420565b565b606090565b612f6090611d6b565b90565b612f6b612f52565b50612f836001612f7d60043390611a79565b01612f57565b90565b612fa7612fac91612f95611261565b50612fa2600733906116f4565b611718565b61174d565b90565b612fc090612fbb613022565b612fc2565b565b80612fde612fd8612fd36000611f86565b61045d565b9161045d565b14612fee57612fec90613071565b565b613013612ffb6000611f86565b6000918291631e4fbdf760e01b835260048301610b00565b0390fd5b61302090612faf565b565b61302a61268b565b61304361303d6130386132e6565b61045d565b9161045d565b0361304a57565b61306d6130556132e6565b600091829163118cdaa760e01b835260048301610b00565b0390fd5b61307b6000611b94565b6130868260006128d9565b906130ba6130b47f8be0079c531659141344cd1fd0a4f28419497f9722a3daafe3b4186f6b6457e093610edb565b91610edb565b916130c3610143565b806130cd8161030f565b0390a3565b6130db81611e2a565b8210156130f6576130ed600191611e37565b91020190600090565b611144565b61310b9060086131109302610eff565b611b75565b90565b9061311e91546130fb565b90565b90565b61313861313361313d92613121565b610eb0565b610248565b90565b9190600861316091029161315a60018060a01b03846111f6565b926111f6565b9181191691161790565b919061318061317b61318893610edb565b6128d6565b908354613140565b9055565b90565b634e487b7160e01b600052603160045260246000fd5b5490565b600052602060002090565b6131bd816131a5565b8210156131d8576131cf6001916131a9565b91020190600090565b611144565b6131ef916131e9612686565b9161316a565b565b6131fa816131a5565b801561321b57600190039061321861321283836131b4565b906131dd565b55565b61318f565b61322a600061157b565b5b8061324761324161323c6006611e2a565b610248565b91610248565b10156132e25761326261325c600683906130d2565b90613113565b61327461326e8461045d565b9161045d565b1461328757613282906127d3565b61322b565b6132ce91506132c86132c06132ba60066132b46132a46006611e2a565b6132ae6001613124565b906117f4565b906130d2565b90613113565b9160066130d2565b9061316a565b6132e06132db600661318c565b6131f1565b565b5050565b6132ee612686565b50339056fea26469706673582212205e34a3d4a97a18f46e7e25ac19722613982f2eca8a6a4490e14f544567d9d17564736f6c634300081c0033",
  "linkReferences": {},
  "deployedLinkReferences": {}
}