{
  "_format": "hh-sol-artifact-1",
  "contractName": "DeWill",
  "sourceName": "contracts/DeWill.sol",
  "abi": [
    {
      "inputs": [],
      "stateMutability": "nonpayable",
      "type": "constructor"
    },
    {
      "inputs": [
        {
          "internalType": "address",
          "name": "owner",
          "type": "address"
        }
      ],
      "name": "OwnableInvalidOwner",
      "type": "error"
    },
    {
      "inputs": [
        {
          "internalType": "address",
          "name": "account",
          "type": "address"
        }
      ],
      "name": "OwnableUnauthorizedAccount",
      "type": "error"
    },
    {
      "anonymous": false,
      "inputs": [
        {
          "indexed": true,
          "internalType": "address",
          "name": "previousOwner",
          "type": "address"
        },
        {
          "indexed": true,
          "internalType": "address",
          "name": "newOwner",
          "type": "address"
        }
      ],
      "name": "OwnershipTransferred",
      "type": "event"
    },
    {
      "inputs": [
        {
          "components": [
            {
              "internalType": "string",
              "name": "text",
              "type": "string"
            },
            {
              "components": [
                {
                  "internalType": "address",
                  "name": "addr",
                  "type": "address"
                },
                {
                  "internalType": "string",
                  "name": "firstName",
                  "type": "string"
                },
                {
                  "internalType": "string",
                  "name": "lastName",
                  "type": "string"
                },
                {
                  "internalType": "string",
                  "name": "primaryEmail",
                  "type": "string"
                },
                {
                  "internalType": "string",
                  "name": "secondaryEmail",
                  "type": "string"
                },
                {
                  "internalType": "enum DeWill.Currency",
                  "name": "currency",
                  "type": "uint8"
                },
                {
                  "internalType": "enum DeWill.Country",
                  "name": "country",
                  "type": "uint8"
                },
                {
                  "internalType": "uint256",
                  "name": "age",
                  "type": "uint256"
                },
                {
                  "internalType": "enum DeWill.Gender",
                  "name": "gender",
                  "type": "uint8"
                },
                {
                  "internalType": "uint256",
                  "name": "percentage",
                  "type": "uint256"
                }
              ],
              "internalType": "struct DeWill.Recipient[]",
              "name": "recipients",
              "type": "tuple[]"
            }
          ],
          "internalType": "struct DeWill.Will",
          "name": "_will",
          "type": "tuple"
        }
      ],
      "name": "addRecipients",
      "outputs": [],
      "stateMutability": "nonpayable",
      "type": "function"
    },
    {
      "inputs": [
        {
          "internalType": "enum DeWill.Currency",
          "name": "_currency",
          "type": "uint8"
        }
      ],
      "name": "getBalance",
      "outputs": [
        {
          "internalType": "uint256",
          "name": "",
          "type": "uint256"
        }
      ],
      "stateMutability": "view",
      "type": "function"
    },
    {
      "inputs": [],
      "name": "getRecipients",
      "outputs": [
        {
          "components": [
            {
              "internalType": "address",
              "name": "addr",
              "type": "address"
            },
            {
              "internalType": "string",
              "name": "firstName",
              "type": "string"
            },
            {
              "internalType": "string",
              "name": "lastName",
              "type": "string"
            },
            {
              "internalType": "string",
              "name": "primaryEmail",
              "type": "string"
            },
            {
              "internalType": "string",
              "name": "secondaryEmail",
              "type": "string"
            },
            {
              "internalType": "enum DeWill.Currency",
              "name": "currency",
              "type": "uint8"
            },
            {
              "internalType": "enum DeWill.Country",
              "name": "country",
              "type": "uint8"
            },
            {
              "internalType": "uint256",
              "name": "age",
              "type": "uint256"
            },
            {
              "internalType": "enum DeWill.Gender",
              "name": "gender",
              "type": "uint8"
            },
            {
              "internalType": "uint256",
              "name": "percentage",
              "type": "uint256"
            }
          ],
          "internalType": "struct DeWill.Recipient[]",
          "name": "",
          "type": "tuple[]"
        }
      ],
      "stateMutability": "view",
      "type": "function"
    },
    {
      "inputs": [],
      "name": "getStaking",
      "outputs": [
        {
          "internalType": "bool",
          "name": "",
          "type": "bool"
        }
      ],
      "stateMutability": "view",
      "type": "function"
    },
    {
      "inputs": [],
      "name": "getWill",
      "outputs": [
        {
          "components": [
            {
              "internalType": "string",
              "name": "text",
              "type": "string"
            },
            {
              "components": [
                {
                  "internalType": "address",
                  "name": "addr",
                  "type": "address"
                },
                {
                  "internalType": "string",
                  "name": "firstName",
                  "type": "string"
                },
                {
                  "internalType": "string",
                  "name": "lastName",
                  "type": "string"
                },
                {
                  "internalType": "string",
                  "name": "primaryEmail",
                  "type": "string"
                },
                {
                  "internalType": "string",
                  "name": "secondaryEmail",
                  "type": "string"
                },
                {
                  "internalType": "enum DeWill.Currency",
                  "name": "currency",
                  "type": "uint8"
                },
                {
                  "internalType": "enum DeWill.Country",
                  "name": "country",
                  "type": "uint8"
                },
                {
                  "internalType": "uint256",
                  "name": "age",
                  "type": "uint256"
                },
                {
                  "internalType": "enum DeWill.Gender",
                  "name": "gender",
                  "type": "uint8"
                },
                {
                  "internalType": "uint256",
                  "name": "percentage",
                  "type": "uint256"
                }
              ],
              "internalType": "struct DeWill.Recipient[]",
              "name": "recipients",
              "type": "tuple[]"
            }
          ],
          "internalType": "struct DeWill.Will",
          "name": "",
          "type": "tuple"
        }
      ],
      "stateMutability": "view",
      "type": "function"
    },
    {
      "inputs": [],
      "name": "optOut",
      "outputs": [],
      "stateMutability": "nonpayable",
      "type": "function"
    },
    {
      "inputs": [],
      "name": "owner",
      "outputs": [
        {
          "internalType": "address",
          "name": "",
          "type": "address"
        }
      ],
      "stateMutability": "view",
      "type": "function"
    },
    {
      "inputs": [],
      "name": "removeRecipients",
      "outputs": [],
      "stateMutability": "nonpayable",
      "type": "function"
    },
    {
      "inputs": [],
      "name": "renounceOwnership",
      "outputs": [],
      "stateMutability": "nonpayable",
      "type": "function"
    },
    {
      "inputs": [
        {
          "internalType": "enum DeWill.Country",
          "name": "_country",
          "type": "uint8"
        },
        {
          "internalType": "string",
          "name": "_currency",
          "type": "string"
        }
      ],
      "name": "setCountryCurrency",
      "outputs": [],
      "stateMutability": "nonpayable",
      "type": "function"
    },
    {
      "inputs": [
        {
          "internalType": "bool",
          "name": "_status",
          "type": "bool"
        }
      ],
      "name": "setStaking",
      "outputs": [],
      "stateMutability": "nonpayable",
      "type": "function"
    },
    {
      "inputs": [
        {
          "internalType": "address",
          "name": "newOwner",
          "type": "address"
        }
      ],
      "name": "transferOwnership",
      "outputs": [],
      "stateMutability": "nonpayable",
      "type": "function"
    },
    {
      "inputs": [
        {
          "internalType": "enum DeWill.Currency",
          "name": "_currency",
          "type": "uint8"
        },
        {
          "internalType": "uint256",
          "name": "_balance",
          "type": "uint256"
        }
      ],
      "name": "updateBalance",
      "outputs": [],
      "stateMutability": "nonpayable",
      "type": "function"
    }
  ],
  "bytecode": "0x6080604052346100275761001161046a565b61001961002c565b61220f6106fc823961220f90f35b610032565b60405190565b600080fd5b634e487b7160e01b600052602160045260246000fd5b600a111561005757565b610037565b906100668261004d565b565b6100719061005c565b90565b9061007e90610068565b600052602052604060002090565b634e487b7160e01b600052602260045260246000fd5b90600160028304921680156100c2575b60208310146100bd57565b61008c565b91607f16916100b2565b600052602060002090565b601f602091010490565b1b90565b919060086101019102916100fb600019846100e1565b926100e1565b9181191691161790565b90565b90565b61012561012061012a9261010b565b61010e565b61010b565b90565b90565b919061014661014161014e93610111565b61012d565b9083546100e5565b9055565b600090565b61016991610163610152565b91610130565b565b5b818110610177575050565b806101856000600193610157565b0161016c565b9190601f811161019b575b505050565b6101a76101cc936100cc565b9060206101b3846100d7565b830193106101d4575b6101c5906100d7565b019061016b565b388080610196565b91506101c5819290506101bc565b6101f760036101f183546100a2565b8361018b565b60067f494e520000000000000000000000000000000000000000000000000000000000019055565b610228906101e2565b565b61023f600361023983546100a2565b8361018b565b60067f5553440000000000000000000000000000000000000000000000000000000000019055565b6102709061022a565b565b610287600361028183546100a2565b8361018b565b60067f4742500000000000000000000000000000000000000000000000000000000000019055565b6102b890610272565b565b6102cf60036102c983546100a2565b8361018b565b60067f4a50590000000000000000000000000000000000000000000000000000000000019055565b610300906102ba565b565b610317600361031183546100a2565b8361018b565b60067f4341440000000000000000000000000000000000000000000000000000000000019055565b61034890610302565b565b61035f600361035983546100a2565b8361018b565b60067f4155440000000000000000000000000000000000000000000000000000000000019055565b6103909061034a565b565b6103a760036103a183546100a2565b8361018b565b60067f434e590000000000000000000000000000000000000000000000000000000000019055565b6103d890610392565b565b6103ef60036103e983546100a2565b8361018b565b60067f5255420000000000000000000000000000000000000000000000000000000000019055565b610420906103da565b565b610437600361043183546100a2565b8361018b565b60067f4348460000000000000000000000000000000000000000000000000000000000019055565b61046890610422565b565b61047333610595565b6104886104836001600090610074565b61021f565b61049b610496600180610074565b610267565b6104b06104ab6001600290610074565b6102af565b6104c56104c06001600390610074565b6102f7565b6104da6104d56001600490610074565b61033f565b6104ef6104ea6001600590610074565b610387565b6105046104ff6001600690610074565b6103cf565b6105196105146001600790610074565b610417565b61052e6105296001600890610074565b61045f565b565b90565b60018060a01b031690565b61055261054d61055792610530565b61010e565b610533565b90565b6105639061053e565b90565b61056f90610533565b90565b61057b90610566565b9052565b919061059390600060208501940190610572565b565b806105b16105ab6105a6600061055a565b610566565b91610566565b146105c1576105bf9061069a565b565b6105e66105ce600061055a565b6000918291631e4fbdf760e01b83526004830161057f565b0390fd5b60001c90565b60018060a01b031690565b61060761060c916105ea565b6105f0565b90565b61061990546105fb565b90565b60001b90565b9061063360018060a01b039161061c565b9181191691161790565b61065161064c61065692610533565b61010e565b610533565b90565b6106629061063d565b90565b61066e90610659565b90565b90565b9061068961068461069092610665565b610671565b8254610622565b9055565b60000190565b6106a4600061060f565b6106af826000610674565b906106e36106dd7f8be0079c531659141344cd1fd0a4f28419497f9722a3daafe3b4186f6b6457e093610665565b91610665565b916106ec61002c565b806106f681610694565b0390a356fe60806040526004361015610013575b610ccd565b61001e6000356100ed565b80631a1ab950146100e85780631f213b8f146100e35780634646d785146100de578063715018a6146100d95780637b1391a6146100d45780638902191d146100cf5780638da5cb5b146100ca578063910730a8146100c5578063acafb964146100c0578063d4eec5a6146100bb578063d78d610b146100b6578063e3a12480146100b15763f2fde38b0361000e57610c9a565b610c46565b610bcf565b610b12565b610adf565b6107cc565b610754565b6106fe565b6106c9565b61066e565b61063a565b6104bc565b61040c565b60e01c90565b60405190565b600080fd5b600080fd5b600091031261010e57565b6100fe565b5190565b60209181520190565b60005b838110610134575050906000910152565b806020918301518185015201610123565b601f801991011690565b61016e61017760209361017c9361016581610113565b93848093610117565b95869101610120565b610145565b0190565b5190565b60209181520190565b60200190565b60018060a01b031690565b6101a790610193565b90565b6101b39061019e565b9052565b634e487b7160e01b600052602160045260246000fd5b600411156101d757565b6101b7565b906101e6826101cd565b565b6101f1906101dc565b90565b6101fd906101e8565b9052565b600a111561020b57565b6101b7565b9061021a82610201565b565b61022590610210565b90565b6102319061021c565b9052565b90565b61024190610235565b9052565b6003111561024f57565b6101b7565b9061025e82610245565b565b61026990610254565b90565b61027590610260565b9052565b9061034290610120806102ed6102db6102c96102b761014087016102a560008b015160008a01906101aa565b60208a015188820360208a015261014f565b6040890151878203604089015261014f565b6060880151868203606088015261014f565b6080870151858203608087015261014f565b9461030060a082015160a08601906101f4565b61031260c082015160c0860190610228565b61032460e082015160e0860190610238565b61033861010082015161010086019061026c565b0151910190610238565b90565b9061034f91610279565b90565b60200190565b9061036c61036583610180565b8092610184565b908161037d6020830284019461018d565b926000915b83831061039157505050505090565b909192939460206103b36103ad83856001950387528951610345565b97610352565b9301930191939290610382565b6103f09160206103df604083016000850151848203600086015261014f565b920151906020818403910152610358565b90565b61040991602082019160008184039101526103c0565b90565b3461043c5761041c366004610103565b610438610427611163565b61042f6100f3565b918291826103f3565b0390f35b6100f9565b600080fd5b6004111561045057565b600080fd5b9050359061046282610446565b565b61046d81610235565b0361047457565b600080fd5b9050359061048682610464565b565b91906040838203126104b157806104a56104ae9260008601610455565b93602001610479565b90565b6100fe565b60000190565b346104eb576104d56104cf366004610488565b9061121b565b6104dd6100f3565b806104e7816104b6565b0390f35b6100f9565b600a11156104fa57565b600080fd5b9050359061050c826104f0565b565b600080fd5b600080fd5b634e487b7160e01b600052604160045260246000fd5b9061053890610145565b810190811067ffffffffffffffff82111761055257604052565b610518565b9061056a6105636100f3565b928361052e565b565b67ffffffffffffffff811161058a57610586602091610145565b0190565b610518565b90826000939282370152565b909291926105b06105ab8261056c565b610557565b938185526020850190828401116105cc576105ca9261058f565b565b610513565b9080601f830112156105ef578160206105ec9335910161059b565b90565b61050e565b9190916040818403126106355761060e83600083016104ff565b92602082013567ffffffffffffffff81116106305761062d92016105d1565b90565b610441565b6100fe565b346106695761065361064d3660046105f4565b9061148e565b61065b6100f3565b80610665816104b6565b0390f35b6100f9565b3461069c5761067e366004610103565b6106866114eb565b61068e6100f3565b80610698816104b6565b0390f35b6100f9565b151590565b6106af906106a1565b9052565b91906106c7906000602085019401906106a6565b565b346106f9576106d9366004610103565b6106f56106e4611539565b6106ec6100f3565b918291826106b3565b0390f35b6100f9565b3461072c5761070e366004610103565b610716611935565b61071e6100f3565b80610728816104b6565b0390f35b6100f9565b61073a9061019e565b9052565b919061075290600060208501940190610731565b565b3461078457610764366004610103565b61078061076f611968565b6107776100f3565b9182918261073e565b0390f35b6100f9565b610792816106a1565b0361079957565b600080fd5b905035906107ab82610789565b565b906020828203126107c7576107c49160000161079e565b90565b6100fe565b346107fa576107e46107df3660046107ad565b6119b4565b6107ec6100f3565b806107f6816104b6565b0390f35b6100f9565b600080fd5b600080fd5b67ffffffffffffffff81116108215760208091020190565b610518565b600080fd5b6108348161019e565b0361083b57565b600080fd5b9050359061084d8261082b565b565b6003111561085957565b600080fd5b9050359061086b8261084f565b565b919091610140818403126109a057610886610140610557565b926108948160008401610840565b6000850152602082013567ffffffffffffffff811161099b57816108b99184016105d1565b6020850152604082013567ffffffffffffffff811161099657816108de9184016105d1565b6040850152606082013567ffffffffffffffff811161099157816109039184016105d1565b606085015260808201359167ffffffffffffffff831161098c5761092c826109849483016105d1565b608086015261093e8260a08301610455565b60a08601526109508260c083016104ff565b60c08601526109628260e08301610479565b60e086015261097582610100830161085e565b61010086015261012001610479565b610120830152565b610804565b610804565b610804565b610804565b6107ff565b9291906109b96109b482610809565b610557565b9381855260208086019202810191838311610a105781905b8382106109df575050505050565b813567ffffffffffffffff8111610a0b57602091610a00878493870161086d565b8152019101906109d1565b61050e565b610826565b9080601f83011215610a3357816020610a30933591016109a5565b90565b61050e565b919091604081840312610aa457610a4f6040610557565b92600082013567ffffffffffffffff8111610a9f5781610a709184016105d1565b6000850152602082013567ffffffffffffffff8111610a9a57610a939201610a15565b6020830152565b610804565b610804565b6107ff565b90602082820312610ada57600082013567ffffffffffffffff8111610ad557610ad29201610a38565b90565b610441565b6100fe565b34610b0d57610af7610af2366004610aa9565b611ea7565b610aff6100f3565b80610b09816104b6565b0390f35b6100f9565b34610b4057610b22366004610103565b610b2a61201e565b610b326100f3565b80610b3c816104b6565b0390f35b6100f9565b60209181520190565b90610b62610b5b83610180565b8092610b45565b9081610b736020830284019461018d565b926000915b838310610b8757505050505090565b90919293946020610ba9610ba383856001950387528951610345565b97610352565b9301930191939290610b78565b610bcc9160208201916000818403910152610b4e565b90565b34610bff57610bdf366004610103565b610bfb610bea61205d565b610bf26100f3565b91829182610bb6565b0390f35b6100f9565b90602082820312610c1e57610c1b91600001610455565b90565b6100fe565b610c2c90610235565b9052565b9190610c4490600060208501940190610c23565b565b34610c7657610c72610c61610c5c366004610c04565b612080565b610c696100f3565b91829182610c30565b0390f35b6100f9565b90602082820312610c9557610c9291600001610840565b90565b6100fe565b34610cc857610cb2610cad366004610c7b565b612111565b610cba6100f3565b80610cc4816104b6565b0390f35b6100f9565b600080fd5b610cdc6040610557565b90565b606090565b606090565b610cf1610cd2565b9060208083610cfe610cdf565b815201610d09610ce4565b81525050565b610d17610ce9565b90565b90565b610d31610d2c610d3692610193565b610d1a565b610193565b90565b610d4290610d1d565b90565b610d4e90610d39565b90565b90610d5b90610d45565b600052602052604060002090565b634e487b7160e01b600052602260045260246000fd5b9060016002830492168015610d9f575b6020831014610d9a57565b610d69565b91607f1691610d8f565b600052602060002090565b9060009291805490610dcf610dc883610d7f565b8094610117565b91600181169081600014610e285750600114610deb575b505050565b610df89192939450610da9565b916000925b818410610e105750500190388080610de6565b60018160209295939554848601520191019290610dfd565b92949550505060ff1916825215156020020190388080610de6565b90610e4d91610db4565b90565b90610e70610e6992610e606100f3565b93848092610e43565b038361052e565b565b52565b5490565b90610e8b610e8683610809565b610557565b918252565b600052602060002090565b60001c90565b60018060a01b031690565b610eb8610ebd91610e9b565b610ea1565b90565b610eca9054610eac565b90565b90610ed79061019e565b9052565b60ff1690565b610eed610ef291610e9b565b610edb565b90565b610eff9054610ee1565b90565b90610f0c906101dc565b9052565b60081c90565b60ff1690565b610f28610f2d91610f10565b610f16565b90565b610f3a9054610f1c565b90565b90610f4790610210565b9052565b90565b610f5a610f5f91610e9b565b610f4b565b90565b610f6c9054610f4e565b90565b90610f7990610235565b9052565b60ff1690565b610f8f610f9491610e9b565b610f7d565b90565b610fa19054610f83565b90565b90610fae90610254565b9052565b610fbd610140610557565b90565b906110bb6110b16008610fd1610fb2565b94610fea610fe160008301610ec0565b60008801610ecd565b611002610ff960018301610e50565b60208801610e72565b61101a61101160028301610e50565b60408801610e72565b61103261102960038301610e50565b60608801610e72565b61104a61104160048301610e50565b60808801610e72565b61106261105960058301610ef5565b60a08801610f02565b61107a61107160058301610f30565b60c08801610f3d565b61109261108960068301610f62565b60e08801610f6f565b6110ab6110a160078301610f97565b6101008801610fa4565b01610f62565b6101208401610f6f565b565b6110c690610fc0565b90565b906110d382610e75565b6110dc81610e79565b926110ea6020850191610e90565b6000915b8383106110fb5750505050565b6009602060019261110b856110bd565b8152019201920191906110ee565b52565b9061115561114c600161112d610cd2565b9461114661113d60008301610e50565b60008801610e72565b016110c9565b60208401611119565b565b6111609061111c565b90565b61116b610d0f565b5061118061117b60043390610d51565b611157565b90565b9061118d90610d45565b600052602052604060002090565b6111a4906101dc565b90565b906111b19061119b565b600052602052604060002090565b60001b90565b906111d2600019916111bf565b9181191691161790565b6111f06111eb6111f592610235565b610d1a565b610235565b90565b90565b9061121061120b611217926111dc565b6111f8565b82546111c5565b9055565b611234611239929161122f60053390611183565b6111a7565b6111fb565b565b9061124d9161124861211c565b611478565b565b61125890610210565b90565b906112659061124f565b600052602052604060002090565b634e487b7160e01b600052600060045260246000fd5b601f602091010490565b1b90565b919060086112b39102916112ad60001984611293565b92611293565b9181191691161790565b91906112d36112ce6112db936111dc565b6111f8565b908354611297565b9055565b600090565b6112f6916112f06112df565b916112bd565b565b5b818110611304575050565b8061131260006001936112e4565b016112f9565b9190601f8111611328575b505050565b61133461135993610da9565b90602061134084611289565b83019310611361575b61135290611289565b01906112f8565b388080611323565b915061135281929050611349565b1c90565b90611384906000199060080261136f565b191690565b8161139391611373565b906002021790565b906113a581610113565b9067ffffffffffffffff8211611467576113c9826113c38554610d7f565b85611318565b602090601f83116001146113fe579180916113ed936000926113f2575b5050611389565b90555b565b909150015138806113e6565b601f1983169161140d85610da9565b9260005b81811061144f57509160029391856001969410611435575b505050020190556113f0565b611445910151601f841690611373565b9055388080611429565b91936020600181928787015181550195019201611411565b610518565b906114769161139b565b565b61148761148c9291600161125b565b61146c565b565b906114989161123b565b565b6114a261211c565b6114aa6114d7565b565b90565b6114c36114be6114c8926114ac565b610d1a565b610193565b90565b6114d4906114af565b90565b6114e96114e460006114cb565b61216b565b565b6114f361149a565b565b600090565b9061150490610d45565b600052602052604060002090565b60ff1690565b61152461152991610e9b565b611512565b90565b6115369054611518565b90565b6115416114f5565b50611556611551600333906114fa565b61152c565b90565b9061156d906000199060200360080261136f565b8154169055565b9060009161158c61158482610da9565b928354611389565b905555565b919290602082106000146115eb57601f84116001146115bb576115b5929350611389565b90555b5b565b50906115e16115e69360016115d86115d285610da9565b92611289565b820191016112f8565b611574565b6115b8565b5061162282936115fc600194610da9565b61161b61160885611289565b820192601f86168061162d575b50611289565b01906112f8565b6002021790556115b9565b61163990888603611559565b38611615565b9290916801000000000000000082116116a15760201160001461169257602081106000146116765761167091611389565b90555b5b565b60019160ff191661168684610da9565b55600202019055611673565b60019150600202019055611674565b610518565b9081546116b281610d7f565b908183116116db575b8183106116c9575b50505050565b6116d293611591565b388080806116c3565b6116e78383838761163f565b6116bb565b634e487b7160e01b600052601160045260246000fd5b61171161171791939293610235565b92610235565b91611723838202610235565b92818404149015171561173257565b6116ec565b6000611742916116a6565b565b906000036117575761175590611737565b565b611273565b611767906009611702565b90565b600060086117ca9282808201556117848360018301611744565b6117918360028301611744565b61179e8360038301611744565b6117ab8360048301611744565b8260058201556117be83600683016112e4565b826007820155016112e4565b565b906000036117df576117dd9061176a565b565b611273565b5b8181106117f0575050565b806117fe60006009936117cc565b016117e5565b9091828110611813575b505050565b61183161182b61182561183c9561175c565b9261175c565b92610e90565b9182019101906117e4565b38808061180e565b9068010000000000000000811161186d578161186261186b93610e75565b90828155611804565b565b610518565b600061187d91611844565b565b906000036118925761189090611872565b565b611273565b600060016118b1926118ab83808301611744565b0161187f565b565b906000036118c6576118c490611897565b565b611273565b919060086118e69102916118e060ff84611293565b92611293565b9181191691161790565b6118f9906106a1565b90565b90565b919061191561191061191d936118f0565b6118fc565b9083546118cb565b9055565b6119339161192d6114f5565b916118ff565b565b61194b600061194660043390610d51565b6118b3565b611961600061195c600333906114fa565b611921565b565b600090565b611970611963565b5061197b6000610ec0565b90565b9061198a60ff916111bf565b9181191691161790565b906119a96119a46119b0926118f0565b6118fc565b825461197e565b9055565b6119c9906119c4600333906114fa565b611994565b565b906119d590610d45565b600052602052604060002090565b6119ed6060610557565b90565b906119fa906106a1565b9052565b611a089051610235565b90565b611a1590516106a1565b90565b90611a5e60406002611a6494611a3d60008201611a37600088016119fe565b906111fb565b611a5660018201611a5060208801611a0b565b90611994565b0192016119fe565b906111fb565b565b90611a7091611a18565b565b67ffffffffffffffff8111611a8a5760208091020190565b610518565b90611aa1611a9c83611a72565b610557565b918252565b369037565b90611ad0611ab883611a8f565b92602080611ac68693611a72565b9201910390611aa6565b565b611ae6611ae1611aeb926114ac565b610d1a565b610235565b90565b6001611afa9101610235565b90565b634e487b7160e01b600052603260045260246000fd5b90611b1d82610180565b811015611b2e576020809102010190565b611afd565b611b3d905161019e565b90565b5190565b90611b4e82611b40565b811015611b5f576020809102010190565b611afd565b60209181520190565b60007f4475706c696361746520726563697069656e747320666f756e64000000000000910152565b611ba2601a602092611b64565b611bab81611b6d565b0190565b611bc59060208101906000818303910152611b95565b90565b15611bcf57565b611bd76100f3565b62461bcd60e51b815280611bed60048201611baf565b0390fd5b5190565b5190565b5190565b90611c0e60018060a01b03916111bf565b9181191691161790565b90565b90611c30611c2b611c3792610d45565b611c18565b8254611bfd565b9055565b611c4590516101dc565b90565b90565b90611c60611c5b611c679261119b565b611c48565b825461197e565b9055565b611c759051610210565b90565b60081b90565b90611c8b61ff0091611c78565b9181191691161790565b90565b90611cad611ca8611cb49261124f565b611c95565b8254611c7e565b9055565b611cc29051610254565b90565b611cce90610254565b90565b90565b90611ce9611ce4611cf092611cc5565b611cd1565b825461197e565b9055565b90611deb6101206008611df194611d1a60008201611d1460008801611b33565b90611c1b565b611d3360018201611d2d60208801611bf1565b9061146c565b611d4c60028201611d4660408801611bf1565b9061146c565b611d6560038201611d5f60608801611bf1565b9061146c565b611d7e60048201611d7860808801611bf1565b9061146c565b611d9760058201611d9160a08801611c3b565b90611c4b565b611db060058201611daa60c08801611c6b565b90611c98565b611dc960068201611dc360e088016119fe565b906111fb565b611de360078201611ddd6101008801611cb8565b90611cd4565b0192016119fe565b906111fb565b565b90611dfd91611cf4565b565b611e24611e1e611e0e84610180565b93611e198585611844565b61018d565b91610e90565b6000915b838310611e355750505050565b6009602082611e4e611e48600195611bf9565b86611df3565b01920192019190611e28565b90611e6491611dff565b565b90611e9360206001611e9994611e8b60008201611e8560008801611bf1565b9061146c565b019201611bf5565b90611e5a565b565b90611ea591611e66565b565b602081015191611f08611ec66002611ec08133906119cb565b01610f62565b611ef74291611eee6001611ee5611edb6119e3565b9560008701610f6f565b602085016119f0565b60408301610f6f565b611f03600233906119cb565b611a66565b611f19611f1484610180565b611aab565b90611f246000611ad2565b925b83611f41611f3b611f3688610180565b610235565b91610235565b1015611fec57611f5e6000611f57878790611b13565b5101611b33565b94611f696000611ad2565b5b80611f7d611f7788610235565b91610235565b1015611fc057611fbb90611fb6611f9d611f98888490611b44565b611b33565b611faf611fa98b61019e565b9161019e565b1415611bc8565b611aee565b611f6a565b50929493611fde611fe39295611fd98891849092611b44565b610ecd565b611aee565b92939193611f26565b9150925061201c915061200b600061200660043390610d51565b6118b3565b61201760043390610d51565b611e9b565b565b612034600061202f60043390610d51565b6118b3565b61204a6000612045600333906114fa565b611921565b565b606090565b61205a906110c9565b90565b61206561204c565b5061207d600161207760043390610d51565b01612051565b90565b6120a16120a69161208f6112df565b5061209c60053390611183565b6111a7565b610f62565b90565b6120ba906120b561211c565b6120bc565b565b806120d86120d26120cd60006114cb565b61019e565b9161019e565b146120e8576120e69061216b565b565b61210d6120f560006114cb565b6000918291631e4fbdf760e01b83526004830161073e565b0390fd5b61211a906120a9565b565b612124611968565b61213d6121376121326121cc565b61019e565b9161019e565b0361214457565b61216761214f6121cc565b600091829163118cdaa760e01b83526004830161073e565b0390fd5b6121756000610ec0565b612180826000611c1b565b906121b46121ae7f8be0079c531659141344cd1fd0a4f28419497f9722a3daafe3b4186f6b6457e093610d45565b91610d45565b916121bd6100f3565b806121c7816104b6565b0390a3565b6121d4611963565b50339056fea2646970667358221220814cae8cf0cf385edcc30f8701e6064af46fb1ba533f048a35f485133a24292164736f6c634300081c0033",
  "linkReferences": {},
  "deployedLinkReferences": {}
}